:020000040800F2
:1000000000000220850C0108C50B0108D30B010874
:10001000D90B0108DF0B0108E50B01080000000007
:10002000000000000000000000000000217B00082C
:10003000EB0B010800000000317D0008F90B0108FE
:10004000D50C0108D50C0108D50C0108D50C010808
:10005000D50C0108D50C0108D50C0108D50C0108F8
:10006000D50C0108D50C0108D50C0108D50C0108E8
:10007000D50C0108D50C0108D50C0108D50C0108D8
:10008000D50C0108D50C0108D50C010800000000B2
:10009000000000000000000000000000D50C010876
:1000A000D50C0108050C0108D50C0108D50C010878
:1000B000D50C0108D50C0108D50C0108D50C010898
:1000C000D50C0108D50C0108D50C0108D50C010888
:1000D000D50C0108D50C0108D50C01080000000062
:1000E000D50C0108D50C0108D50C01080000000052
:1000F000000000000000000000000000D50C010816
:1001000000000000D50C0108D50C0108D50C010831
:1001100000000000000000000000000000000000DF
:10012000D50C0108D50C0108D50C0108D50C010827
:10013000D50C0108000000000000000000000000D5
:10014000000000000000000000000000C945000899
:10015000D50C0108D50C0108D50C0108D50C0108F7
:10016000D50C0108D50C01080000000000000000BB
:10017000000000000000000000000000000000007F
:1001800000000000D50C0108000000000000000085
:08019000D50C0108D50C010893
:1001A00010B5054C237833B9044B13B10448AFF3B1
:1001B00000800123237010BDA80300200000000070
:1001C0006C10010808B5034B1BB103490348AFF39A
:1001D000008008BD00000000AC0300206C10010886
:1001E00010F8012B11F8013B012A28BF9A42F7D0E1
:1001F000D01A7047034613F8012B002AFBD1181AB6
:100200000138704753B94AB9002908BF00281CBFFC
:100210004FF0FF314FF0FF3000F07AB9ADF1080C2C
:100220006DE904CE00F006F8DDF804E0DDE9022314
:1002300004B070472DE9F0478C460D460446089EF1
:10024000002B51D18A4217466DD9B2FA82FEBEF117
:10025000000F0BD0CEF1200C01FA0EF520FA0CFCA9
:1002600002FA0EF74CEA050C00FA0EF44FEA174AB0
:10027000250CBCFBFAF81FFA87F90AFB18CC45EAF3
:100280000C4508FB09F3AB420AD9ED1908F1FF321E
:1002900080F02381AB4240F22081A8F102083D4466
:1002A000ED1AA4B2B5FBFAF00AFB105544EA054476
:1002B00000FB09F9A14509D9E41900F1FF3380F0E9
:1002C0000A81A14540F2078102383C44A4EB0904AD
:1002D00040EA08400021002E61D024FA0EF40023E9
:1002E00034607360BDE8F0878B4207D9002E54D08C
:1002F000002186E821000846BDE8F087B3FA83F1C3
:10030000002940F08E80AB4202D3824200F2FA8094
:10031000841A65EB03050120AC46002E3FD086E829
:100320001010BDE8F08712B90127B7FBF2F7B7FA52
:1003300087FEBEF1000F34D1EB1B3A0C1FFA87FC8D
:100340000121B3FBF2F8250C02FB183345EA034503
:100350000CFB08F3AB4207D9ED1908F1FF3002D2CC
:10036000AB4200F2D1808046ED1AA3B2B5FBF2F0A9
:1003700002FB105543EA05440CFB00FCA44507D9D9
:10038000E41900F1FF3302D2A44500F2B880184608
:10039000A4EB0C0440EA08409DE731463046BDE836
:1003A000F087CEF1200405FA0EF307FA0EF720FAD3
:1003B00004F83A0C25FA04F448EA0308B4FBF2F115
:1003C0004FEA184502FB11441FFA87FC45EA044531
:1003D00001FB0CF3AB4200FA0EF409D9ED1901F15F
:1003E000FF3080F08A80AB4240F2878002393D4482
:1003F000EB1A1FFA88F5B3FBF2F002FB103345EA63
:10040000034500FB0CF3AB4207D9ED1900F1FF38AF
:100410006FD2AB426DD902383D44EB1A40EA01413C
:100420008FE7C1F1200722FA07F88B4005FA01F4A3
:1004300048EA030320FA07FE4FEA134CFD404EEA58
:10044000040EB5FBFCF94FEA1E440CFB19551FFACC
:1004500083F844EA054509FB08F4AC4202FA01F2CC
:1004600000FA01FA08D9ED1809F1FF3043D2AC4285
:1004700041D9A9F102091D442D1B1FFA8EFEB5FBBF
:10048000FCF00CFB10554EEA054400FB08F8A045B3
:1004900007D9E41800F1FF3529D2A04527D9023841
:1004A0001C4440EA0940A4EB0804A0FB02894C4527
:1004B000C6464D4615D312D056B1BAEB0E0364EBC7
:1004C000050404FA07F7CB401F43CC403760746043
:1004D0000021BDE8F0871846F8E69046E0E6C24500
:1004E000EAD2B8EB020E69EB03050138E4E72846CF
:1004F000D7E7404691E78146BEE7014678E70238F4
:100500003C4445E7084608E7A8F102083D442BE7CC
:10051000704700BF80B500AF0E4A0E4B1B6843F416
:10052000007313600B4A0B4B1B6843F4806313602A
:10053000084A084B1B6843F480731360032000F0E3
:1005400017F9002010F0E6FA10F092FA002318468E
:1005500080BD00BF003C024080B400AF064B1B785A
:100560001A46064B1B681344044A136000BFBD467D
:100570005DF8047B704700BF000000207C5700201E
:1005800080B400AF034B1B681846BD465DF8047B82
:10059000704700BF7C57002080B584B000AF786002
:1005A000FFF7EEFFB8607B68FB60FB68B3F1FF3FCD
:1005B00005D0094B1B781A46FB681344FB6000BF4B
:1005C000FFF7DEFF0246BB68D21AFB689A42F7D3F8
:1005D00000BF1037BD4680BD0000002080B485B04C
:1005E00000AF78607B6803F00703FB600C4BDB68AF
:1005F000BB60BA684FF6FF031340BB60FB681A028A
:10060000BB68134343F0BF6343F40033BB60044A49
:10061000BB68D36000BF1437BD465DF8047B7047EC
:1006200000ED00E080B400AF044BDB681B0A03F070
:1006300007031846BD465DF8047B704700ED00E0F7
:1006400080B483B000AF0346FB71094997F90730C6
:100650005B09FA7902F01F02012000FA02F241F868
:10066000232000BF0C37BD465DF8047B704700BFF8
:1006700000E100E080B483B000AF03463960FB7155
:1006800097F90730002B0BDA0D49FB7903F00F03C4
:10069000043B3A68D2B21201D2B20B441A7609E096
:1006A000084997F907303A68D2B21201D2B20B4426
:1006B00083F8002300BF0C37BD465DF8047B70470C
:1006C00000ED00E000E100E080B489B000AFF86028
:1006D000B9607A60FB6803F00703FB61FB69C3F153
:1006E0000703042B28BF0423BB61FB690433062BDB
:1006F00002D9FB69033B00E000237B610122BB6957
:1007000002FA03F35A1EBB681A407B699A40012122
:100710007B6901FA03F3591E7B680B4013431846AB
:100720002437BD465DF8047B7047000080B582B079
:1007300000AF78607B68013BB3F1807F01D3012378
:100740000FE00A4A7B68013B53600F214FF0FF30F6
:10075000FFF790FF054B00229A60044B07221A60B6
:10076000002318460837BD4680BD00BF10E000E0FA
:1007700080B582B000AF78607868FFF72FFF00BFC8
:100780000837BD4680BD80B586B000AF0346B9606E
:100790007A60FB7300237B61FFF744FF78617A681E
:1007A000B9687869FFF790FF024697F90F30114654
:1007B0001846FFF75FFF00BF1837BD4680BD80B504
:1007C00082B000AF0346FB7197F907301846FFF778
:1007D00037FF00BF0837BD4680BD80B582B000AF8F
:1007E00078607868FFF7A2FF034618460837BD46D1
:1007F00080BD000080B483B000AF78607B68042BBC
:1008000006D1094A084B1B6843F00403136005E056
:10081000054A054B1B6823F00403136000BF0C3727
:10082000BD465DF8047B704710E000E080B489B0FD
:1008300000AF7860396000237B6100233B610023B7
:10084000BB610023FB6159E10122FB6902FA03F35A
:100850007B613B681A687B6913403B613A697B693D
:100860009A4240F048813B685B68022B03D03B68AA
:100870005B68122B23D1FB69DA087B68083253F8D6
:100880002230BB61FB6903F007039B000F2202FAD1
:1008900003F3DB43BA691340BB613B681A69FB6928
:1008A00003F007039B0002FA03F3BA691343BB6129
:1008B000FB69DA087B680832B96943F822107B6863
:1008C0001B68BB61FB695B00032202FA03F3DB4395
:1008D000BA691340BB613B685B6803F00302FB69C4
:1008E0005B0002FA03F3BA691343BB617B68BA6920
:1008F0001A603B685B68012B0BD03B685B68022B7E
:1009000007D03B685B68112B03D03B685B68122BF8
:1009100030D17B689B68BB61FB695B00032202FAF4
:1009200003F3DB43BA691340BB613B68DA68FB69D8
:100930005B0002FA03F3BA691343BB617B68BA69CF
:100940009A607B685B68BB610122FB6902FA03F372
:10095000DB43BA691340BB613B685B681B0903F06A
:100960000102FB6902FA03F3BA691343BB617B68B6
:10097000BA695A607B68DB68BB61FB695B00032274
:1009800002FA03F3DB43BA691340BB613B689A6820
:10099000FB695B0002FA03F3BA691343BB617B682E
:1009A000BA69DA603B685B6803F08053002B00F0A3
:1009B000A2800023FB60564A554B5B6C43F4804396
:1009C0005364534B5B6C03F48043FB60FB68514AF8
:1009D000FB699B08023352F82330BB61FB6903F0CB
:1009E00003039B000F2202FA03F3DB43BA691340AF
:1009F000BB617B68484A934219D07B68474A93425F
:100A000013D07B68464A93420DD07B68454A934297
:100A100007D07B68444A934201D1042308E00723AE
:100A200006E0032304E0022302E0012300E00023A8
:100A3000FA6902F0030292009340BA691343BB6162
:100A40003449FB699B080233BA6941F82320374BCC
:100A50001B68BB613B69DB43BA691340BB613B6800
:100A60005B6803F48033002B03D0BA693B691343FE
:100A7000BB612E4ABB6913602C4B5B68BB613B6951
:100A8000DB43BA691340BB613B685B6803F4003326
:100A9000002B03D0BA693B691343BB61234ABB698E
:100AA0005360224B9B68BB613B69DB43BA691340CF
:100AB000BB613B685B6803F48013002B03D0BA6909
:100AC0003B691343BB61194ABB699360174BDB68F1
:100AD000BB613B69DB43BA691340BB613B685B6840
:100AE00003F40013002B03D0BA693B691343BB61C5
:100AF0000E4ABB69D360FB690133FB61FB690F2BB5
:100B00007FF6A2AE00BF2437BD465DF8047B704778
:100B1000003802400038014000000240000402405A
:100B200000080240000C024000100240003C01405E
:100B300080B483B000AF78600B467B8013467B7037
:100B40007B78002B03D07A887B689A6103E07B88EE
:100B50001A047B689A6100BF0C37BD465DF8047BC0
:100B6000704780B483B000AF78600B467B807B68B1
:100B70005A697B885A407B685A6100BF0C37BD4672
:100B80005DF8047B7047F0B58FB00AAF7860002342
:100B9000FB607B68002B01D10123F7E07B68032217
:100BA00083F8B923786803F051F97B681B6818460D
:100BB00001F068FF7B681B683B607E686D4606F14C
:100BC00010040FCC0FC50FCC0FC594E8030085E8C7
:100BD0000300331D0ECB386801F0F2FE7B681B6802
:100BE0000021184601F05FFF0023FB604CE07968AC
:100BF000FA681346DB009B1A9B000B443933012231
:100C00001A70FB68D8B27968FA681346DB009B1A41
:100C10009B000B44383302461A70FB6898B279681F
:100C2000FA681346DB009B1A9B000B443E330246D6
:100C30001A807968FA681346DB009B1A9B000B4404
:100C40003B3300221A707968FA681346DB009B1A5E
:100C50009B000B44403300221A607968FA681346FF
:100C6000DB009B1A9B000B44443300221A60796816
:100C7000FA681346DB009B1A9B000B444C3300229E
:100C80001A60FB680133FB60FB680E2BAFD90023B1
:100C9000FB605AE07968FA681346DB009B1A9B00F8
:100CA0000B4403F2F91300221A70FB68D8B279687A
:100CB000FA681346DB009B1A9B000B4403F5FC7398
:100CC00002461A70FB6898B27968FA681346DB002E
:100CD0009B1A9B000B443E3302461A807968FA68DF
:100CE0001346DB009B1A9B000B4403F2FB1300220C
:100CF0001A707968FA681346DB009B1A9B000B4454
:100D000003F5007300221A607968FA681346DB0065
:100D10009B1A9B000B4403F5017300221A6079684B
:100D2000FA681346DB009B1A9B000B4403F5037320
:100D300000221A607B681A68FB6840339B001344EA
:100D400000225A60FB680133FB60FB680E2BA1D9BF
:100D50007B681B683B607E686D4606F110040FCC13
:100D60000FC50FCC0FC594E8030085E80300331DC1
:100D70000ECB386801F0BEFE7B68012283F8B923F0
:100D80007B681B68184602F0DFFE00231846143704
:100D9000BD46F0BD80B582B000AF78607B6893F847
:100DA000B833012B01D1022312E07B68012283F8C2
:100DB000B8237B681B68184602F0AFFE7B681B688F
:100DC000184601F04EFE7B68002283F8B82300230A
:100DD00018460837BD4680BD80B58CB000AF78603E
:100DE0007B681B683B620023FB620023BB6200231D
:100DF000FB6100237B620023BB6100237B617C4B92
:100E00003B617B681B68184602F040FF0346002BDD
:100E100040F068847B681B68184602F0ACFE03460D
:100E2000002B00F05E847B681B68184602F0A3FE6E
:100E3000034603F00203022B07D17B681B687A6824
:100E40001268526902F002025A617B681B681846F8
:100E500002F091FE034603F40023B3F5002F40F0A7
:100E6000B28000237B627B681B68184602F098FE04
:100E7000B862A4E0BB6A03F00103002B00F0998084
:100E80007B681B687A6AD2B21146184602F0B8FE37
:100E9000F861FB6903F00103002B6BD07B6A5A01F8
:100EA0003B6A134403F530631A46012393607B6861
:100EB0001B69012B3CD179687A6A1346DB009B1AC7
:100EC0009B000B4403F500731A687B6A59013B6A67
:100ED0000B4403F530631B69C3F31203D11A78681E
:100EE0007A6A1346DB009B1A9B00034403F50473E4
:100EF000196079687A6A1346DB009B1A9B000B44E1
:100F000003F50173196878687A6A1346DB009B1A47
:100F10009B00034403F500731B68194478687A6AE0
:100F20001346DB009B1A9B00034403F50173196011
:100F30007B6ADBB21946786802F0E6FF7B681B69C2
:100F4000012B17D17B6A002B14D179687A6A13467A
:100F5000DB009B1A9B000B4403F503731B68002BFB
:100F600008D17B6818687B6803F56F731A46012106
:100F700002F0D0FEFB6903F00803002B0BD0786869
:100F800002F0B0FF7B6A5A013B6A134403F53063F9
:100F90001A4608239360FB6903F01003002B08D066
:100FA0007B6A5A013B6A134403F530631A461023E7
:100FB00093607B6A01337B62BB6A5B08BB62BB6A7E
:100FC000002B7FF457AF7B681B68184602F0D3FDF7
:100FD000034603F48023B3F5802F40F0C5807B687F
:100FE0001B68184602F0F4FDB86200237B62B7E08C
:100FF0000095BA0ABB6A03F00103002B00F0AA8037
:101000007B681B687A6AD2B21146184602F014FE59
:10101000F861FB6903F00103002B5AD001227B6ABF
:1010200002FA03F3BB613B6A03F5006319463B6AAE
:1010300003F500635A6BBB69DB4313404B637B6A68
:101040005A013B6A134403F510631A460123936067
:101050007B681B69012B1BD179687A6A1346DB0018
:101060009B1A9B000B444433196878687A6A1346CC
:10107000DB009B1A9B00034440331B6819447868CB
:101080007A6A1346DB009B1A9B00034444331960C1
:101090007B6ADBB21946786802F051FF7B681B69F6
:1010A000012B16D17B6A002B13D179687A6A13461B
:1010B000DB009B1A9B000B444C331B68002B08D1B0
:1010C0007B6818687B6803F56F731A46012102F08C
:1010D00021FEFB6903F00803002B08D07B6A5A014C
:1010E0003B6A134403F510631A4608239360FB69B7
:1010F00003F01003002B08D07B6A5A013B6A1344AB
:1011000003F510631A4610239360FB6903F0400354
:10111000002B08D07B6A5A013B6A134403F5106325
:101120001A4640239360FB6903F00203002B08D0AA
:101130007B6A5A013B6A134403F510631A46022383
:101140009360FB6903F08003002B03D0796A786811
:1011500000F0F1FC7B6A01337B62BB6A5B08BB6217
:10116000BB6A002B7FF446AF7B681B68184602F011
:1011700002FD034603F00043B3F1004F15D13B6A73
:1011800003F500631A463B6A03F500635B6823F0CE
:1011900001035360786802F04BFF7B681B687A6834
:1011A0001268526902F000425A617B681B68184657
:1011B00002F0E1FC034603F40063B3F5006F12D1C3
:1011C0003B6A03F500639B6803F00103012B02D126
:1011D000786802F005FF7B681B687A6812685269BC
:1011E00002F400625A617B681B68184602F0C3FC77
:1011F000034603F48053B3F5805F40F091803B6A6F
:1012000003F500631A463B6A03F500635B6823F04D
:10121000010353607B681B681021184601F09CFD98
:101220000023FB6214E0FB6A5A013B6A134403F596
:1012300010631A46FF239360FB6A5A013B6A13440A
:1012400003F530631A46FF239360FB6A0133FB62A8
:101250007B685A68FB6A9A42E5D83B6A03F50063EB
:101260001A464FF0FF3393613B6A03F500631A4659
:101270003B6A03F50063DB6943F00113D3617B68CC
:101280001B6B002B18D03B6A03F500631A463B6AC0
:1012900003F50063D3F8843043F00B03C2F88430C5
:1012A0003B6A03F500631A463B6A03F500635B6C17
:1012B00043F00B03536415E03B6A03F500631A46E1
:1012C0003B6A03F500635B6943F00B0353613B6AC0
:1012D00003F500631A463B6A03F500631B6943F09C
:1012E0000B0313613B6A03F500631A463B6A03F57F
:1012F00000631B6823F4FE6313607B6818687B68D7
:101300001B69D9B27B6803F56F731A4602F002FDC0
:101310007B681B687A681268526902F480525A61CD
:101320007B681B68184602F026FC034603F4005352
:10133000B3F5005F40F0DA807B681B68184602F066
:10134000B3FC7B681B687A681268D26822F470521A
:10135000DA607B681B68184601F05EFD0346002BCF
:101360000FD17B680022DA607B684FF400725A610B
:101370007B681B687A681268D26842F41052DA609F
:10138000A9E07B680322DA607B6840225A6101F0A1
:10139000ADF838613B697B4A93420CD93B697A4A84
:1013A000934208D87B681B687A681268D26842F456
:1013B0007052DA608FE03B69734A93420CD93B6903
:1013C000724A934208D87B681B687A681268D268B0
:1013D00042F46052DA607EE03B696C4A93420CD979
:1013E0003B696B4A934208D87B681B687A6812682D
:1013F000D26842F45052DA606DE03B69644A93422D
:101400000CD93B69634A934208D87B681B687A68A9
:101410001268D26842F44052DA605CE03B695D4A8F
:1014200093420CD93B695C4A934208D87B681B689D
:101430007A681268D26842F43052DA604BE03B6955
:10144000554A93420CD93B69544A934208D87B6869
:101450001B687A681268D26842F42052DA603AE077
:101460003B694E4A93420CD93B694D4A934208D896
:101470007B681B687A681268D26842F41052DA609E
:1014800029E03B69464A93420CD93B69454A93425D
:1014900008D87B681B687A681268D26842F40052E8
:1014A000DA6018E03B693F4A93420CD93B693E4AF7
:1014B000934208D87B681B687A681268D26842F445
:1014C000E052DA6007E07B681B687A681268D268CD
:1014D00042F4C052DA60786802F059FD7B681B68FC
:1014E0007A681268526902F400525A617B681B687C
:1014F000184602F040FB034603F01003102B74D192
:101500007B681B687A681268926922F010029A61FF
:101510003B6A1B6A7B617B6903F00F021346DB00A9
:101520009B1A9B0003F5FC737A681344FB607B698C
:101530005B0C03F00F03022B38D17A6947F6F07386
:101540001340002B49D0FB68D9687B691B099BB20B
:10155000C3F30A039BB21A46386A02F0B3F9FB6878
:10156000DA687B691B09C3F30A031A44FB68DA6073
:10157000FB689A697B691B09C3F30A031A44FB6879
:101580009A612AE0BFACD800BFE1E400FF23F40079
:101590007F7306019F491A01FF2C31013FA44C01C2
:1015A000FF356E011FABA601FF47E8017B695B0CAD
:1015B00003F00F03062B10D17B6803F56F7308222D
:1015C0001946386A02F07EF9FB689A697B691B0943
:1015D000C3F30A031A44FB689A617B681B687A6844
:1015E0001268926942F010029A617B681B68184683
:1015F00002F0C1FA034603F00803082B0AD1786809
:1016000002F0B7FC7B681B687A681268526902F0C6
:1016100008025A617B681B68184602F0ACFA034660
:1016200003F48013B3F5801F0DD17B6ADBB219463A
:10163000786802F01DFD7B681B687A681268526941
:1016400002F480125A617B681B68184602F093FA14
:10165000034603F40013B3F5001F0DD17B6ADBB220
:101660001946786802F0F2FC7B681B687A68126899
:10167000526902F400125A617B681B68184602F036
:101680007AFA034603F08043B3F1804F0AD17868B9
:1016900002F000FD7B681B687A681268526902F0EC
:1016A00080425A617B681B68184602F064FA034660
:1016B00003F00403042B15D17B681B685B687B6116
:1016C0007B6903F00403002B02D0786802F0F0FC81
:1016D0007B681B687A68126851687A690A435A60A5
:1016E00000E000BF3037BD4680BD00BF80B582B08E
:1016F00000AF78600B46FB707B6893F8B833012B22
:1017000001D102230FE07B68012283F8B8237B68B4
:101710001B68FA781146184602F0D9F97B68002256
:1017200083F8B823002318460837BD4680BD80B52E
:1017300084B000AF7860084611461A460346FB7035
:101740000B463B801346BB700023FB7297F90330B6
:10175000002B0BDAFB7803F07F021346DB009B1AA9
:101760009B0038337A681344FB600BE0FB7803F08E
:101770007F021346DB009B1A9B0003F5FC737A681B
:101780001344FB60FB7803F07F03DAB2FB681A7046
:1017900097F90330DBB2DB09DBB21A46FB685A70FB
:1017A0003A88FB689A60FB68BA78DA70FB685B7805
:1017B000002B04D0FB681B789AB2FB68DA80BB78F8
:1017C000022B02D1FB6800221A717B6893F8B833B0
:1017D000012B01D102230EE07B68012283F8B8239C
:1017E0007B681B68F968184601F04BFB7B68002298
:1017F00083F8B823FB7A18461037BD4680BD80B504
:1018000084B000AF78600B46FB7097F90330002B73
:101810000BDAFB7803F07F021346DB009B1A9B0078
:1018200038337A681344FB600BE0FB7803F07F02E7
:101830001346DB009B1A9B0003F5FC737A68134484
:10184000FB60FB7803F07F03DAB2FB681A7097F94C
:101850000330DBB2DB09DBB21A46FB685A707B68E7
:1018600093F8B833012B01D102230EE07B680122EB
:1018700083F8B8237B681B68F968184601F08AFB77
:101880007B68002283F8B823002318461037BD4632
:1018900080BD80B586B000AFF8607A603B600B46D3
:1018A000FB72FB7A03F07F021346DB009B1A9B005E
:1018B00003F5FC73FA6813447B617B697A68DA602C
:1018C0007B693A685A617B6900229A617B690022D0
:1018D0005A70FB7A03F07F03DAB27B691A70FB68F7
:1018E0001B69012B02D17A687B691A61FB7A03F0CC
:1018F0007F03002B09D1FB681868FB681B69DBB20A
:101900001A46796901F04AFE08E0FB681868FB682E
:101910001B69DBB21A46796901F0FEFB0023184609
:101920001837BD4680BD80B483B000AF78600B46E9
:10193000FB70FB7803F00F0279681346DB009B1AFB
:101940009B000B4403F504731B689BB218460C37CD
:10195000BD465DF8047B704780B586B000AFF86087
:101960007A603B600B46FB72FB7A03F07F02134602
:10197000DB009B1A9B003833FA6813447B617B6958
:101980007A68DA607B693A685A617B6900229A61F9
:101990007B6901225A70FB7A03F07F03DAB27B691C
:1019A0001A70FB681B69012B02D17A687B691A6186
:1019B000FB7A03F07F03002B09D1FB681868FB68F2
:1019C0001B69DBB21A46796901F0E8FD08E0FB68A3
:1019D0001868FB681B69DBB21A46796901F09CFB49
:1019E000002318461837BD4680BD80B584B000AFCF
:1019F00078600B46FB7097F90330002B0BDAFB780D
:101A000003F07F021346DB009B1A9B0038337A6891
:101A10001344FB6009E0FA781346DB009B1A9B0035
:101A200003F5FC737A681344FB60FB6801229A702B
:101A3000FB7803F07F03DAB2FB681A7097F9033082
:101A4000DBB2DB09DBB21A46FB685A707B6893F89D
:101A5000B833012B01D102231EE07B68012283F8F9
:101A6000B8237B681B68F968184601F052FFFB78C1
:101A700003F07F03002B0AD17B6818687B681B6921
:101A8000D9B27B6803F56F731A4602F043F97B689D
:101A9000002283F8B823002318461037BD4680BDC6
:101AA00080B584B000AF78600B46FB7097F90330C7
:101AB000002B0BDAFB7803F07F021346DB009B1A46
:101AC0009B0038337A681344FB6009E0FA781346C8
:101AD000DB009B1A9B0003F5FC737A681344FB60E0
:101AE000FB6800229A70FB7803F07F03DAB2FB6890
:101AF0001A7097F90330DBB2DB09DBB21A46FB68D8
:101B00005A707B6893F8B833012B01D102230EE0A1
:101B10007B68012283F8B8237B681B68F968184644
:101B200001F068FF7B68002283F8B8230023184681
:101B30001037BD4680BD80B58AB002AF786039608D
:101B40007B681B687B610023FB6100233B613A6873
:101B50001346DB009B1A9B0038337A681344FB6002
:101B6000FB685A69FB689B69D31AFB61FB689A683A
:101B7000FB699A4202D2FB689B68FB61FB690333F5
:101B80009B08BB612BE0FB685A69FB689B69D31A11
:101B9000FB61FB689A68FB699A4202D2FB689B680A
:101BA000FB61FB6903339B08BB61FB68D9683B6839
:101BB000DAB2FB6998B27B681B69DBB2009303461B
:101BC000786901F04AFEFB68DA68FB691A44FB6831
:101BD000DA60FB689A69FB691A44FB689A613B68A2
:101BE0005A017B69134403F510639B699AB2BB6980
:101BF0009A4209D9FB689A69FB685B699A4203D2E9
:101C0000FB685B69002BBED1FB69002B10D1012260
:101C10003B6802FA03F33B617B6903F500631946F5
:101C20007B6903F500635A6B3B69DB4313404B63ED
:101C3000002318462037BD4680BD80B485B000AF74
:101C400078600B46FB7013463B800023FB73002338
:101C5000BB607B681B685B6ABB60FB78002B07D1AD
:101C60007B681B683A881104BA680A439A6228E0C4
:101C70007B681B689B6A1B0CBA681344BB6000231B
:101C8000FB730DE07B681A68FB7B40339B001344B9
:101C90005B681B0CBA681344BB60FB7B0133FB73AE
:101CA000FA7BFB78013B9A42ECDB7B681968FB7896
:101CB000013B3A881004BA68024340339B000B444E
:101CC0005A60002318461437BD465DF8047B704700
:101CD00080B483B000AF78600B467B807B681B6864
:101CE0007A885A62002318460C37BD465DF8047B9B
:101CF0007047000080B586B000AF78607B68002B2D
:101D000001D101232DE27B681B6803F00103002B46
:101D100075D0A34B9B6803F00C03042B0CD0A04B95
:101D20009B6803F00C03082B12D19D4B5B6803F4F6
:101D30008003B3F5800F0BD1994B1B6803F400337C
:101D4000002B5BD07B685B68002B57D1012308E236
:101D50007B685B68B3F5803F06D1914A904B1B6866
:101D600043F4803313601DE07B685B68B3F5A02FFC
:101D70000CD18B4A8A4B1B6843F480231360884A3A
:101D8000874B1B6843F4803313600BE0844A844B19
:101D90001B6823F480331360814A814B1B6823F452
:101DA000802313607B685B68002B13D0FEF7E8FB91
:101DB000386108E0FEF7E4FB02463B69D31A642B66
:101DC00001D90323CDE1764B1B6803F40033002BCC
:101DD000F0D014E0FEF7D4FB386108E0FEF7D0FB4A
:101DE00002463B69D31A642B01D90323B9E16C4B3A
:101DF0001B6803F40033002BF0D100E000BF7B68C8
:101E00001B6803F00203002B63D0654B9B6803F053
:101E10000C03002B0BD0624B9B6803F00C03082BC8
:101E20001CD15F4B5B6803F48003002B16D15C4B25
:101E30001B6803F00203002B05D07B68DB68012BD5
:101E400001D001238DE15649554B1B6823F0F80260
:101E50007B681B69DB0013430B603AE07B68DB683F
:101E6000002B20D04F4B01221A60FEF789FB38610E
:101E700008E0FEF785FB02463B69D31A022B01D925
:101E800003236EE1464B1B6803F00203002BF0D0E6
:101E90004349434B1B6823F0F8027B681B69DB0056
:101EA00013430B6015E03F4B00221A60FEF768FBFE
:101EB000386108E0FEF764FB02463B69D31A022B47
:101EC00001D903234DE1364B1B6803F00203002BBD
:101ED000F0D17B681B6803F00803002B30D07B68CF
:101EE0005B69002B16D0304B01221A60FEF748FBCD
:101EF000386108E0FEF744FB02463B69D31A022B27
:101F000001D903232DE1264B5B6F03F00203002B65
:101F1000F0D015E0244B00221A60FEF731FB386147
:101F200008E0FEF72DFB02463B69D31A022B01D9CC
:101F3000032316E11A4B5B6F03F00203002BF0D171
:101F40007B681B6803F00403002B00F0A0800023D3
:101F5000FB75134B1B6C03F08053002B0FD1002338
:101F6000FB600F4A0E4B1B6C43F0805313640C4B09
:101F70001B6C03F08053FB60FB680123FB750B4B6C
:101F80001B6803F48073002B21D1084A074B1B68A0
:101F900043F480731360FEF7F3FA386111E000BF79
:101FA0000038024000004742800E47420070004067
:101FB000FEF7E6FA02463B69D31A022B01D9032346
:101FC000CFE06A4B1B6803F48073002BF0D07B6872
:101FD0009B68012B06D1664A654B1B6F43F00103DA
:101FE00013671CE07B689B68052B0CD1604A604B33
:101FF0001B6F43F0040313675D4A5D4B1B6F43F097
:10200000010313670BE05A4A594B1B6F23F001037E
:102010001367574A564B1B6F23F0040313677B6803
:102020009B68002B15D0FEF7ABFA38610AE0FEF78B
:10203000A7FA02463B69D31A41F28832934201D98A
:1020400003238EE04A4B1B6F03F00203002BEED0FC
:1020500014E0FEF795FA38610AE0FEF791FA0246BD
:102060003B69D31A41F28832934201D9032378E0C5
:102070003F4B1B6F03F00203002BEED1FB7D012BC6
:1020800005D13B4A3A4B1B6C23F0805313647B68A9
:102090009B69002B64D0364B9B6803F00C03082B24
:1020A0005CD07B689B69022B41D1324B00221A60C5
:1020B000FEF766FA386108E0FEF762FA02463B690D
:1020C000D31A022B01D903234BE0294B1B6803F0E1
:1020D0000073002BF0D126497B68DA697B681B6AA4
:1020E0001A437B685B6A9B011A437B689B6A5B08A7
:1020F000013B1B041A437B68DB6A1B0613434B60DE
:102100001C4B01221A60FEF73BFA386108E0FEF72B
:1021100037FA02463B69D31A022B01D9032320E088
:10212000134B1B6803F00073002BF0D018E0114B29
:1021300000221A60FEF724FA386108E0FEF720FA60
:1021400002463B69D31A022B01D9032309E0084B4D
:102150001B6803F00073002BF0D101E0012300E0C5
:10216000002318461837BD4680BD00BF00700040F0
:10217000003802406000474280B584B000AF78600C
:1021800039607B68002B01D10123CAE0674B1B68D3
:1021900003F00F023B689A420CD2644B3A68D2B209
:1021A0001A70624B1B6803F00F023B689A4201D021
:1021B0000123B6E07B681B6803F00203002B20D0EC
:1021C0007B681B6803F00403002B05D0584A584B6A
:1021D0009B6843F4E05393607B681B6803F008033B
:1021E000002B05D0524A524B9B6843F460439360E6
:1021F0004F494F4B9B6823F0F0027B689B68134369
:102200008B607B681B6803F00103002B44D07B6864
:102210005B68012B07D1464B1B6803F40033002B8E
:1022200019D101237DE07B685B68022B03D07B68BA
:102230005B68032B07D13E4B1B6803F00073002B38
:1022400009D101236DE03A4B1B6803F00203002B18
:1022500001D1012365E03649354B9B6823F0030229
:102260007B685B6813438B60FEF78AF9F8600AE0CD
:10227000FEF786F90246FB68D31A41F28832934290
:1022800001D903234DE02A4B9B6803F00C027B68C5
:102290005B689B009A42EBD1244B1B6803F00F0252
:1022A0003B689A420CD9214B3A68D2B21A701F4B44
:1022B0001B6803F00F023B689A4201D0012330E013
:1022C0007B681B6803F00403002B08D01849184BE7
:1022D0009B6823F4E0527B68DB6813438B607B6868
:1022E0001B6803F00803002B09D01149104B9B68B1
:1022F00023F460427B681B69DB0013438B6000F0B2
:102300001DF801460A4B9B681B0903F00F03094A9D
:10231000D35C21FA03F3084A136000200EF0FAFBA5
:10232000002318461037BD4680BD00BF003C024068
:102330000038024070120108D00100202DE9F04F52
:102340008FB000AF0023FB6200237B630023BB62DE
:1023500000233B63624B9B6803F00C03042B07D004
:10236000082B08D0002B40F0B2805E4B3B63B1E0FD
:102370005D4B3B63AEE05A4B5B6803F03F03FB628F
:10238000574B5B6803F48003002B4ED0544B5B68C3
:102390009B094FF0000440F2FF114FF0000201EAE8
:1023A000030102EA04020B46144660017862786A6F
:1023B00040EAD36078625B013B62D7E908345B1A7C
:1023C00064EB02044FEA841949EA93694FEA8318DF
:1023D000B8EB030869EB04094FEAC903FB61FB6929
:1023E00043EA5873FB614FEAC803BB61D7E906892A
:1023F00018EB010849EB02094FEA49237B617B692D
:1024000043EAD8537B614FEA48233B61D7E904890B
:1024100040464946FB6A4FF000041A462346FDF742
:10242000F1FE03460C467B6343E02D4B5B689B0942
:102430004FF0000440F2FF114FF0000201EA0301E7
:1024400002EA04020B4614466001F860F86840EAAC
:10245000D360F8605B01BB60D7E902345B1A64EBC0
:102460000204A60146EA93669D01ED1A66EB040696
:10247000F3007B607B6843EA55737B60EB003B6055
:1024800097E860006D1846EB02064FEA862B4BEA90
:10249000955B4FEA852A55465E4628463146FB6ADB
:1024A0004FF000041A462346FDF7ACFE03460C46E7
:1024B0007B630B4B5B681B0C03F0030301335B0076
:1024C000BB627A6BBB6AB2FBF3F33B6302E0054B82
:1024D0003B6300BF3B6B18463C37BD46BDE8F08F01
:1024E000003802400024F40000127A0080B400AFEB
:1024F000034B1B681846BD465DF8047B704700BF60
:10250000D001002080B500AFFFF7F0FF0146054B7A
:102510009B685B0B03F00703034AD35C21FA03F3C8
:10252000184680BD003802408012010880B483B094
:1025300000AF786039607B680F221A60124B9B688D
:1025400003F003027B685A600F4B9B6803F0F002B4
:102550007B689A600C4B9B6803F4E0527B68DA60FE
:10256000094B9B68DB0803F4E0527B681A61074B58
:102570001B6803F00F023B681A6000BF0C37BD46B2
:102580005DF8047B704700BF00380240003C024009
:1025900080B582B000AF78607B68002B01D1012349
:1025A0001DE07B6893F83930DBB2002B06D17B68E5
:1025B000002283F83820786800F015F87B68022242
:1025C00083F839207B681A687B6804331946104603
:1025D00000F05EF97B68012283F839200023184659
:1025E0000837BD4680BD80B483B000AF786000BFBF
:1025F0000C37BD465DF8047B704780B483B000AFF4
:1026000078607B681B687A681268D26842F00102C1
:10261000DA607B681B687A681268126842F001020F
:102620001A60002318460C37BD465DF8047B7047DE
:1026300080B582B000AF78607B681B681B6903F0CF
:102640000203022B22D17B681B68DB6803F00203C4
:10265000022B1BD17B681B686FF002021A617B683A
:1026600001221A767B681B689B6903F00303002B29
:1026700003D0786800F0EEF805E0786800F0E0F844
:10268000786800F0F1F87B6800221A767B681B6896
:102690001B6903F00403042B22D17B681B68DB68F1
:1026A00003F00403042B1BD17B681B686FF004024A
:1026B0001A617B6802221A767B681B689B6903F4A7
:1026C0004073002B03D0786800F0C4F805E0786808
:1026D00000F0B6F8786800F0C7F87B6800221A7638
:1026E0007B681B681B6903F00803082B22D17B68F9
:1026F0001B68DB6803F00803082B1BD17B681B6891
:102700006FF008021A617B6804221A767B681B68E6
:10271000DB6903F00303002B03D0786800F09AF81C
:1027200005E0786800F08CF8786800F09DF87B6828
:1027300000221A767B681B681B6903F01003102BBC
:1027400022D17B681B68DB6803F01003102B1BD1C0
:102750007B681B686FF010021A617B6808221A768A
:102760007B681B68DB6903F44073002B03D0786837
:1027700000F070F805E0786800F062F8786800F022
:1027800073F87B6800221A767B681B681B6903F06C
:102790000103012B0ED17B681B68DB6803F001038A
:1027A000012B07D17B681B686FF001021A61786802
:1027B0000EF046F97B681B681B6903F08003802BD1
:1027C0000ED17B681B68DB6803F08003802B07D188
:1027D0007B681B686FF080021A61786800F0E6F889
:1027E0007B681B681B6903F04003402B0ED17B689C
:1027F0001B68DB6803F04003402B07D17B681B6834
:102800006FF040021A61786800F038F87B681B6846
:102810001B6903F02003202B0ED17B681B68DB684B
:1028200003F02003202B07D17B681B686FF0200288
:102830001A61786800F0B0F800BF0837BD4680BD67
:1028400080B483B000AF786000BF0C37BD465DF840
:10285000047B704780B483B000AF786000BF0C3752
:10286000BD465DF8047B704780B483B000AF7860EC
:1028700000BF0C37BD465DF8047B704780B483B061
:1028800000AF786000BF0C37BD465DF8047B704731
:1028900080B485B000AF786039600023FB607B684E
:1028A0001B68FB607B68354A93420FD07B68B3F1AD
:1028B000804F0BD07B68324A934207D07B68314A05
:1028C000934203D07B68304A934201D1012300E058
:1028D0000023002B08D0FB6823F07003FB603B68EB
:1028E0005B68FA681343FB607B68244A93421BD001
:1028F0007B68B3F1804F17D07B68214A934213D095
:102900007B68204A93420FD07B681F4A93420BD0CA
:102910007B681E4A934207D07B681D4A934203D0CE
:102920007B681C4A934201D1012300E00023002B65
:1029300008D0FB6823F44073FB603B68DB68FA68EF
:102940001343FB607B68FA681A603B689A687B688F
:10295000DA623B681A687B689A627B68074A93422E
:1029600003D13B681A697B681A637B6801225A614C
:1029700000BF1437BD465DF8047B7047000001407E
:102980000004004000080040000C004000400140EE
:10299000004401400048014080B483B000AF78603B
:1029A00000BF0C37BD465DF8047B704780B483B030
:1029B00000AF786000BF0C37BD465DF8047B704700
:1029C00084B080B582B000AF786007F1140080E871
:1029D0000E00BB6A012B20D17B689B6B23F48032F5
:1029E0007B689A637B68DB6823F4840323F04003ED
:1029F0007A68D3607B68DB6823F440127B68DA6016
:102A00007B6C012B05D17B68DB6843F480127B680B
:102A1000DA60786801F0C4F90CE07B68DB6843F0A9
:102A200040027B68DA60786801F0BAF97B684FF49D
:102A300080329A633B6A012B0BD17B689B6843F021
:102A400006027B689A607B689B6843F020027B6883
:102A50009A60002318460837BD46BDE8804004B0A0
:102A6000704780B483B000AF78607B689B6843F0A8
:102A700001027B689A60002318460C37BD465DF85A
:102A8000047B704780B483B000AF78607B689B683C
:102A900023F001027B689A60002318460C37BD467C
:102AA0005DF8047B704780B582B000AF78600B465C
:102AB000FB707B68DB6823F0C0427B68DA60FB78E0
:102AC000012B06D17B68DB6843F000527B68DA603B
:102AD00008E0FB78002B05D17B68DB6843F080427F
:102AE0007B68DA603220FDF757FD0023184608376F
:102AF000BD4680BD84B080B584B000AF786007F17A
:102B00001C0080E80E000023FB607B6C002B06D1CC
:102B10007B689B6B43F400127B689A6305E07B68DB
:102B20009B6B43F400227B689A637B6803F56063C8
:102B30001A46002313607B6803F500631A467B681E
:102B400003F500631B6813603B6B012B0CD17B6AA0
:102B5000002B04D10021786800F046F908E001213B
:102B6000786800F041F903E00321786800F03CF94F
:102B70001021786800F0F0F8786800F013F97B68AD
:102B800003F500631A46002313617B6803F50063B5
:102B90001A46002353617B6803F500631A464FF021
:102BA000FF3393617B6803F500631A460023D3610A
:102BB0000023FB6034E0FB685A017B68134403F593
:102BC00010631B6803F00043B3F1004F0AD1FB68A8
:102BD0005A017B68134403F510631A464FF0904383
:102BE000136008E0FB685A017B68134403F5106327
:102BF0001A4600231360FB685A017B68134403F5EF
:102C000010631A4600231361FB685A017B68134462
:102C100003F510631A46FF239360FB680133FB60E2
:102C2000FA69FB689A42C6D80023FB6034E0FB686F
:102C30005A017B68134403F530631B6803F00043BB
:102C4000B3F1004F0AD1FB685A017B68134403F5C6
:102C500030631A464FF09043136008E0FB685A0156
:102C60007B68134403F530631A4600231360FB6846
:102C70005A017B68134403F530631A46002313613D
:102C8000FB685A017B68134403F530631A46FF233F
:102C90009360FB680133FB60FA69FB689A42C6D80F
:102CA0007B6803F500631A467B6803F500631B69C4
:102CB00023F480731361BB6A012B17D17B6803F582
:102CC00000631A46224B13637B6803F500631A46C0
:102CD0007B6803F500631B6B43F4803343F003030D
:102CE00013637B6803F500631B6BFB607B6800224A
:102CF0009A617B686FF080425A61BB6A002B05D1F4
:102D00007B689B6943F010027B689A617B689A69D3
:102D1000104B13437A6893617B6B002B05D07B6863
:102D20009B6943F008027B689A617B6C012B07D199
:102D30007B689B6943F0804343F004037A689361A6
:102D4000002318461037BD46BDE8804004B07047E8
:102D50000001800000383C8080B485B000AF78600E
:102D600039600023FB603B689B0143F020027B68D5
:102D70001A61FB680133FB60FB68094A934201D981
:102D8000032306E07B681B6903F02003202BF0D0AF
:102D9000002318461437BD465DF8047B704700BF1A
:102DA000400D030080B485B000AF78600023FB6065
:102DB0007B6810221A61FB680133FB60FB68094ADB
:102DC000934201D9032306E07B681B6903F01003DB
:102DD000102BF0D0002318461437BD465DF8047B55
:102DE000704700BF400D030080B483B000AF78602F
:102DF0000B46FB707B6803F5006319467B6803F59F
:102E000000631A68FB7813430B60002318460C37E5
:102E1000BD465DF8047B704780B485B000AF786034
:102E20000023FB737B6803F500639B6803F00603D4
:102E3000002B02D10023FB731CE07B6803F50063C9
:102E40009B6803F00603022B07D07B6803F5006341
:102E50009B6803F00603062B02D10323FB7309E0F2
:102E60007B6803F500639B6803F00603042B01D124
:102E70000223FB73FB7B18461437BD465DF8047BC9
:102E8000704780B483B000AF786039603B685B788E
:102E9000012B3ED17B6803F5006319467B6803F57F
:102EA0000063DA693B681B781846012383409BB2B4
:102EB0001343CB613B681B785A017B68134403F5CD
:102EC00010631B6803F40043002B5CD13B681B7844
:102ED0005A017B68134403F5106318463B681B785E
:102EE0005A017B68134403F510631A683B689B68BA
:102EF000C3F30A033968C97889040B433968097830
:102F000089050B43134343F0805343F400430360AC
:102F100039E07B6803F5006319467B6803F50063BD
:102F2000DA693B681B781846012383401B0413436E
:102F3000CB613B681B785A017B68134403F530630F
:102F40001B6803F40043002B1DD13B681B785A011A
:102F50007B68134403F5306318463B681B785A01BD
:102F60007B68134403F530631A683B689B68C3F3BE
:102F70000A033968C97889040B43134343F080532B
:102F800043F400430360002318460C37BD465DF848
:102F9000047B704780B584B000AF7860396000234F
:102FA000FB603B685B78012B54D13B681B785A016E
:102FB0007B68134403F5106319463B681B785A017C
:102FC0007B68134403F510631B6823F400430B6014
:102FD0003B681B785A017B68134403F510631A465B
:102FE0004FF0006313603B681B785A017B68134401
:102FF00003F510631A464FF080431360FB680133FA
:10300000FB60FB68434A934201D903237DE03B68A0
:103010001B785A017B68134403F510639B6803F027
:103020008043B3F1804FE9D010217868FFF794FE18
:103030007B6803F5006319467B6803F50063DA6972
:103040003B681B781846012383409BB2DB43134047
:10305000CB6159E03B681B785A017B68134403F548
:10306000306319463B681B785A017B68134403F5AB
:1030700030631B6823F400430B603B681B785A01E4
:103080007B68134403F530631A464FF00063136006
:103090003B681B785A017B68134403F530631A467A
:1030A0004FF080431360FB680133FB60FB68194AF3
:1030B000934201D9032328E03B681B785A017B68BF
:1030C000134403F530639B6803F01003102BEAD020
:1030D0007B6803F500631A467B6803F500635B6851
:1030E00043F4806353607B6803F5006319467B6893
:1030F00003F50063DA693B681B78184601238340B7
:103100001B04DB431340CB61002318461037BD4638
:1031100080BD00BF400D030080B588B002AFF860ED
:10312000B9601346FB710023FB82BB685B78012BFF
:1031300040F04681BB685B69002B3BD1BB681B78C4
:103140005A01FB68134403F510631946BB681B78EA
:103150005A01FB68134403F510631B6923F0FF5306
:1031600023F4C0130B61BB681B785A01FB6813443E
:1031700003F510631946BB681B785A01FB681344BA
:1031800003F510631B6943F400230B61BB681B78D4
:103190005A01FB68134403F510631946BB681B789A
:1031A0005A01FB68134403F510631B69DB0CDB0455
:1031B0000B6186E0BB681B785A01FB68134403F57A
:1031C00010631946BB681B785A01FB68134403F56A
:1031D00010631B69DB0CDB040B61BB681B785A01B5
:1031E000FB68134403F510631946BB681B785A014A
:1031F000FB68134403F510631B6923F0FF5323F4AA
:10320000C0130B61BB681B785A01FB68134403F5BC
:1032100010631846BB681B785A01FB68134403F51A
:1032200010631A69BB685969BB689B680B44591ED7
:10323000BB689B68B1FBF3F3D9048C4B0B40134381
:103240000361BB681B785A01FB68134403F51063E4
:103250001946BB681B785A01FB68134403F51063D9
:103260001A69BB685B69C3F3120313430B61BB6844
:10327000DB78012B25D1BB681B785A01FB6813440E
:1032800003F510631946BB681B785A01FB681344A9
:1032900003F510631B6923F0C0430B61BB681B7807
:1032A0005A01FB68134403F510631946BB681B7889
:1032B0005A01FB68134403F510631B6943F0005384
:1032C0000B61FB79012B0BD1BB681B785A01FB68A2
:1032D000134403F510631A46BB681B69536116E07B
:1032E000BB68DB78012B12D0BB685B69002B0ED06A
:1032F000FB6803F500631946FB6803F500635A6B2E
:10330000BB681B7818460123834013434B63BB689B
:10331000DB78012B2ED1FB6803F500639B6803F477
:103320008073002B13D1BB681B785A01FB681344D0
:1033300003F510631946BB681B785A01FB681344F8
:1033400003F510631B6843F000530B6012E0BB6889
:103350001B785A01FB68134403F510631946BB68D8
:103360001B785A01FB68134403F510631B6843F094
:1033700080530B60BB681B785A01FB68134403F54C
:1033800010631946BB681B785A01FB68134403F5A8
:1033900010631B6843F004430B60BB68DB78012BB0
:1033A00040F0F580BB68D968BB681A78BB685B6978
:1033B00098B2FB7900930346F86800F04EFAE6E015
:1033C000BB681B785A01FB68134403F53063194648
:1033D000BB681B785A01FB68134403F530631B6913
:1033E000DB0CDB040B61BB681B785A01FB681344E0
:1033F00003F530631946BB681B785A01FB68134418
:1034000003F530631B6923F0FF5323F4C0130B61F2
:10341000BB685B69002B2BD1BB681B785A01FB682A
:10342000134403F530631946BB681B785A01FB68E7
:10343000134403F530631A69BB689B68C3F3120336
:1034400013430B61BB681B785A01FB68134403F5F7
:1034500030631946BB681B785A01FB68134403F5B7
:1034600030631B6943F400230B613CE00000F81F4C
:10347000BB685A69BB689B6813445A1EBB689B684B
:10348000B2FBF3F3FB82BB681B785A01FB68134461
:1034900003F530631946BB681B785A01FB68134477
:1034A00003F530631A69FB8ADB0418463A4B034084
:1034B00013430B61BB681B785A01FB68134403F587
:1034C00030631846BB681B785A01FB68134403F548
:1034D00030631A69BB689B68F98A01FB03F3C3F385
:1034E000120313430361FB79012B0AD1BB681B78DC
:1034F0005A01FB68134403F530631A46BB68DB6866
:103500005361BB68DB78012B2ED1FB6803F50063A8
:103510009B6803F48073002B13D1BB681B785A019E
:10352000FB68134403F530631946BB681B785A01E6
:10353000FB68134403F530631B6843F000530B60D2
:1035400012E0BB681B785A01FB68134403F5306333
:103550001946BB681B785A01FB68134403F53063B6
:103560001B6843F080530B60BB681B785A01FB68F3
:10357000134403F530631946BB681B785A01FB6896
:10358000134403F530631B6843F004430B600023CE
:1035900018461837BD4680BD0000F81F80B485B0BE
:1035A00000AFF860B9601346FB71BB685B78012B14
:1035B00040F0D280BB685B69002B3BD1BB681B78B5
:1035C0005A01FB68134403F510631946BB681B7866
:1035D0005A01FB68134403F510631B6923F0FF5382
:1035E00023F4C0130B61BB681B785A01FB681344BA
:1035F00003F510631946BB681B785A01FB68134436
:1036000003F510631B6943F400230B61BB681B784F
:103610005A01FB68134403F510631946BB681B7815
:103620005A01FB68134403F510631B69DB0CDB04D0
:103630000B615AE0BB681B785A01FB68134403F521
:1036400010631946BB681B785A01FB68134403F5E5
:1036500010631B69DB0CDB040B61BB681B785A0130
:10366000FB68134403F510631946BB681B785A01C5
:10367000FB68134403F510631B6923F0FF5323F425
:10368000C0130B61BB685A69BB689B689A4203D937
:10369000BB689A68BB685A61BB681B785A01FB68B3
:1036A000134403F510631946BB681B785A01FB6885
:1036B000134403F510631B6943F400230B61BB68DB
:1036C0001B785A01FB68134403F510631946BB6865
:1036D0001B785A01FB68134403F510631A69BB6831
:1036E0005B69C3F3120313430B61BB681B785A0178
:1036F000FB68134403F510631946BB681B785A0135
:10370000FB68134403F510631B6843F004430B602C
:10371000FB79012B0BD1BB681B785A01FB68134462
:1037200003F510631A46BB681B6953618EE0BB68E2
:103730005B69002B00F08A80FB6803F50063194683
:10374000FB6803F500635A6BBB681B7818460123BE
:10375000834013434B6379E0BB681B785A01FB68D5
:10376000134403F530631946BB681B785A01FB68A4
:10377000134403F530631B69DB0CDB040B61BB688E
:103780001B785A01FB68134403F530631946BB6884
:103790001B785A01FB68134403F530631B6923F05F
:1037A000FF5323F4C0130B61BB685B69002B03D08C
:1037B000BB689A68BB685A61BB681B785A01FB6892
:1037C000134403F530631946BB681B785A01FB6844
:1037D000134403F530631B6943F400230B61BB689A
:1037E0001B785A01FB68134403F530631946BB6824
:1037F0001B785A01FB68134403F530631A69BB68F0
:103800009B68C3F3120313430B61FB79012B0AD1AD
:10381000BB681B785A01FB68134403F530631A46F2
:10382000BB68DB685361BB681B785A01FB681344B3
:1038300003F530631946BB681B785A01FB681344D3
:1038400003F530631B6843F004430B600023184604
:103850001437BD465DF8047B704780B487B000AF75
:10386000F860B96011461A460B46FB711346BB80DF
:1038700000233B6100237B6197F82030002B1AD195
:10388000BB8803339B083B6100237B610FE0FB791E
:103890001A03FB68134403F580531A46BB681B6880
:1038A00013607B6901337B61BB680433BB607A6959
:1038B0003B699A42EBD3002318461C37BD465DF89E
:1038C000047B704780B487B000AFF860B9601346DE
:1038D000FB8000237B61FB8803339B083B61002353
:1038E0007B610BE0FB6803F580531A68BB681A60C4
:1038F0007B6901337B61BB680433BB607A693B69D8
:103900009A42EFD3BB6818461C37BD465DF8047B6E
:10391000704780B483B000AF786039603B685B78F3
:10392000012B30D13B681B785A017B68134403F5A7
:1039300010631B68002B12DB3B681B785A017B6805
:10394000134403F5106319463B681B785A017B68E2
:10395000134403F510631B6823F080430B603B683E
:103960001B785A017B68134403F5106319463B68C2
:103970001B785A017B68134403F510631B6843F4FA
:1039800000130B602FE03B681B785A017B681344DF
:1039900003F530631B68002B12DB3B681B785A0170
:1039A0007B68134403F5306319463B681B785A0162
:1039B0007B68134403F530631B6823F080430B607E
:1039C0003B681B785A017B68134403F53063194642
:1039D0003B681B785A017B68134403F530631B680E
:1039E00043F400130B60002318460C37BD465DF806
:1039F000047B704780B483B000AF786039603B6867
:103A00005B78012B2ED13B681B785A017B681344ED
:103A100003F5106319463B681B785A017B68134411
:103A200003F510631B6823F400130B603B68DB781D
:103A3000032B03D03B68DB78022B41D13B681B781A
:103A40005A017B68134403F5106319463B681B78E1
:103A50005A017B68134403F510631B6843F08053DD
:103A60000B602DE03B681B785A017B68134403F51B
:103A7000306319463B681B785A017B68134403F591
:103A800030631B6823F400130B603B68DB78032B67
:103A900003D03B68DB78022B12D13B681B785A01BC
:103AA0007B68134403F5306319463B681B785A0161
:103AB0007B68134403F530631B6843F080530B604D
:103AC000002318460C37BD465DF8047B704780B470
:103AD00083B000AF78600B46FB707B6803F5006332
:103AE0001A467B6803F500631B6823F4FE631360CA
:103AF0007B6803F5006319467B6803F500631A6869
:103B0000FB781B0103F4FE6313430B60002318468C
:103B10000C37BD465DF8047B704780B582B000AFBE
:103B200078607B6803F500631A467B6803F50063E1
:103B30005B6823F0020353600320FCF72DFD002394
:103B400018460837BD4680BD80B582B000AF7860AA
:103B50007B6803F500631A467B6803F500635B68C6
:103B600043F0020353600320FCF716FD00231846C0
:103B70000837BD4680BD80B485B000AF78600023B3
:103B8000FB607B685B69FB607B689B69FA6813403C
:103B9000FB60FB6818461437BD465DF8047B704730
:103BA00080B485B000AF78607B6803F500639B69E3
:103BB000FB607B6803F50063DB69FA681340FB6018
:103BC000FB681B0C18461437BD465DF8047B704734
:103BD00080B485B000AF78607B6803F500639B69B3
:103BE000FB607B6803F50063DB69FA681340FB60E8
:103BF000FB689BB218461437BD465DF8047B7047DE
:103C000080B485B000AF78600B46FB70FB785A013A
:103C10007B68134403F530639B68FB607B6803F5A6
:103C200000635B69FA681340FB60FB681846143751
:103C3000BD465DF8047B704780B487B000AF786004
:103C40000B46FB707B6803F500631B697B617B6837
:103C500003F500635B6B3B61FB783A6922FA03F37F
:103C6000DB01DBB27A6913437B61FB785A017B6825
:103C7000134403F510639A687B691340FB60FB688B
:103C800018461C37BD465DF8047B704780B483B08E
:103C900000AF78607B685B6903F0010318460C375E
:103CA000BD465DF8047B704780B483B000AF786098
:103CB0007B6803F510631A467B6803F510631B6885
:103CC00023F4FF6323F0070313607B6803F50063AD
:103CD0009B6803F00603042B0AD17B6803F510638D
:103CE0001A467B6803F510631B6843F003031360F7
:103CF0007B6803F500631A467B6803F500635B6825
:103D000043F480735360002318460C37BD465DF8BA
:103D1000047B704780B485B000AFF8600B467A60D2
:103D2000FB72FB6803F530631A4600231361FB68DE
:103D300003F530631A46FB6803F530631B6943F4EF
:103D400000231361FB6803F530631A46FB6803F533
:103D500030631B6943F018031361FB6803F530639C
:103D60001A46FB6803F530631B6943F0C0431361D7
:103D7000FB7A012B0CD1FB6803F530631A467B6894
:103D80005361FB6803F530631A464FF080231360DC
:103D9000002318461437BD465DF8047B70470000C9
:103DA00080B485B000AF78600023FB60FB6801330E
:103DB000FB60FB68134A934201D903231BE07B6835
:103DC0001B69002BF2DA0023FB607B681B6943F060
:103DD00001027B681A61FB680133FB60FB68094ADA
:103DE000934201D9032306E07B681B6903F00103BA
:103DF000012BF0D0002318461437BD465DF8047B34
:103E0000704700BF400D030080B500AF00220B4992
:103E10000B4802F0B4FC0B49094802F0DBFC0A49EC
:103E2000074802F02BFC03230122E021044801F0A3
:103E300053FF034802F0E8FC00BF80BD04000020EF
:103E400080570020B40000203C00002080B588B0DE
:103E500000AF78607B681B68B3F1A04F39D14FF495
:103E6000C853FB6002233B6100237B610323BB61DA
:103E70000A23FB6107F10C0319461848FCF7D6FC2E
:103E80004FF40073FB6000233B6100237B6107F16B
:103E90000C0319461148FCF7C9FC114A104B5B6B27
:103EA00043F0800353630023BB600D4A0C4B5B6CF3
:103EB00043F4804353640A4B5B6C03F48043BB6060
:103EC000BB68002207214320FCF75DFC4320FCF780
:103ED00076FC00BF2037BD4680BD00BF0000024019
:103EE0000038024080B582B000AF78607B68D3F8BC
:103EF000EC237B6803F56F731946104602F0CDFC86
:103F000000BF0837BD4680BD80B582B000AF786085
:103F10000B46FB707B68D3F8EC03FA78796813469C
:103F2000DB009B1A9B000B4403F501731A68FB78B6
:103F3000194602F0FCFC00BF0837BD4680BD80B5C5
:103F400082B000AF78600B46FB707B68D3F8EC035F
:103F5000FA7879681346DB009B1A9B000B444433C4
:103F60001A68FB78194602F03DFD00BF0837BD46D0
:103F700080BD80B582B000AF78607B68D3F8EC3349
:103F8000184602F023FE00BF0837BD4680BD80B54D
:103F900084B000AF78600123FB737B68DB68002B83
:103FA00002D0022B03D005E00023FB7305E00123C0
:103FB000FB7302E00123FB7300BF7B68D3F8EC3393
:103FC000FA7B1146184602F0CBFD7B68D3F8EC3340
:103FD000184602F096FD00BF1037BD4680BD0000B8
:103FE00080B582B000AF78607B68D3F8EC331846B8
:103FF00002F0C6FD7B681B6803F560631A467B68A8
:104000001B6803F560631B6843F0010313607B6862
:104010001B6A002B05D0054A044B1B6943F00603BD
:10402000136100BF0837BD4680BD00BF00ED00E052
:1040300080B582B000AF78607B68D3F8EC33184667
:1040400002F0B3FD00BF0837BD4680BD80B582B029
:1040500000AF78600B46FB707B68D3F8EC33FA78DE
:104060001146184602F0D9FD00BF0837BD4680BD95
:1040700080B582B000AF78600B46FB707B68D3F8E8
:10408000EC33FA781146184602F0BAFD00BF083743
:10409000BD4680BD80B582B000AF78607B68D3F844
:1040A000EC33184602F0C6FD00BF0837BD4680BDA0
:1040B00080B582B000AF78607B68D3F8EC331846E7
:1040C00002F0C3FD00BF0837BD4680BD80B582B099
:1040D00000AF78607B681B78002B4CD1284A7B6846
:1040E000C2F8EC337B68264AC3F82022244B4FF0F9
:1040F000A0421A60224B04225A60214B0222DA604D
:104100001F4B00221A611E4B00225A611C4B0222D7
:104110009A611B4B0022DA61194B00221A62184B7C
:1041200000225A62164B0122DA62154B00221A63F2
:104130001348FCF728FD0346002B04D04FF49F7171
:1041400010480CF08FFC80210D48FDF7C1FD402286
:1041500000210B48FDF771FD402201210848FDF7C1
:104160006CFD402202210648FDF767FD4022032135
:104170000348FDF762FD002318460837BD4680BDA1
:10418000A45900208410010880B584B000AF786085
:104190000023BB730023FB737B68D3F820321846DF
:1041A000FCF7F8FD0346BB73BB7B032B16D801A2BB
:1041B00052F823F0C5410008CB410008D141000866
:1041C000D74100080023FB730BE00223FB7308E0D8
:1041D0000123FB7305E00223FB7302E00223FB7360
:1041E00000BFFB7B18461037BD4680BD80B584B04C
:1041F00000AF7860084611461A460346FB700B462E
:10420000BB7013463B800023BB730023FB73FB781A
:104210001946786801F0EAFF0346FB707B68D3F823
:104220002002BB783A88F978FDF781FA0346BB7320
:10423000BB7B032B16D801A252F823F04D42000895
:1042400053420008594200085F4200080023FB73F4
:104250000BE00223FB7308E00123FB7305E002235C
:10426000FB7302E00223FB7300BFFB7B1846103791
:10427000BD4680BD80B584B000AF78600B46FB7052
:104280000023BB730023FB73FB781946786801F0A9
:10429000ADFF0346FB707B68D3F82032FA781146F5
:1042A0001846FDF7ACFA0346BB73BB7B032B17D84C
:1042B00001A252F823F000BFC9420008CF42000813
:1042C000D5420008DB4200080023FB730BE0022309
:1042D000FB7308E00123FB7305E00223FB7302E09C
:1042E0000223FB7300BFFB7B18461037BD4680BD21
:1042F00080B584B000AF78600B46FB700023BB73C1
:104300000023FB737B68D3F82032FA7811461846F5
:10431000FDF76BFB0346BB73BB7B032B16D801A2D7
:1043200052F823F0354300083B430008414300089E
:10433000474300080023FB730BE00223FB7308E0F4
:104340000123FB7305E00223FB7302E00223FB73EE
:1043500000BFFB7B18461037BD4680BD80B584B0DA
:1043600000AF78600B46FB700023BB730023FB7328
:104370007B68D3F82032FA7811461846FDF790FB97
:104380000346BB73BB7B032B16D801A252F823F064
:10439000A1430008A7430008AD430008B343000849
:1043A0000023FB730BE00223FB7308E00123FB7384
:1043B00005E00223FB7302E00223FB7300BFFB7BDB
:1043C00018461037BD4680BD80B485B000AF786018
:1043D0000B46FB707B68D3F82032FB6097F9033003
:1043E000002B0BDAFB7803F07F02F9681346DB0041
:1043F0009B1A9B000B443A331B780BE0FB7803F0CD
:104400007F02F9681346DB009B1A9B000B4403F5FF
:10441000FD731B7818461437BD465DF8047B704762
:1044200080B584B000AF78600B46FB700023BB738F
:104430000023FB737B68D3F82032FA7811461846C4
:10444000FDF754F90346BB73BB7B032B16D801A2BF
:1044500052F823F0654400086B44000871440008DA
:10446000774400080023FB730BE00223FB7308E092
:104470000123FB7305E00223FB7302E00223FB73BD
:1044800000BFFB7B18461037BD4680BD80B586B0A7
:1044900000AFF8607A601A460B46FB7213463B8108
:1044A0000023BB750023FB75FB7A1946F86801F001
:1044B0009DFE0346FB72FB68D3F820023B89F97A24
:1044C0007A68FDF749FA0346BB75BB7D032B17D805
:1044D00001A252F823F000BFE9440008EF440008AD
:1044E000F5440008FB4400080023FB750BE00223A1
:1044F000FB7508E00123FB7505E00223FB7502E074
:104500000223FB7500BFFB7D18461837BD4680BDF2
:1045100080B586B000AFF8607A601A460B46FB7231
:1045200013463B810023BB750023FB75FB7A1946BC
:10453000F86801F05BFE0346FB72FB68D3F82002CB
:104540003B89F97A7A68FDF7A4F90346BB75BB7D10
:10455000032B17D801A252F823F000BF6D450008C5
:1045600073450008794500087F4500080023FB7566
:104570000BE00223FB7508E00123FB7505E0022335
:10458000FB7502E00223FB7500BFFB7D1846183760
:10459000BD4680BD80B582B000AF78600B46FB7031
:1045A000FB781946786801F021FE0346FB707B68B2
:1045B000D3F82032FA7811461846FDF7B4F90346CD
:1045C00018460837BD4680BD80B500AF0248FCF7ED
:1045D00003FC00BF80BD00BFA459002080B483B09D
:1045E00000AF03463960FB713B6812221A80034B0F
:1045F00018460C37BD465DF8047B7047200000204C
:1046000080B483B000AF03463960FB713B6804227D
:104610001A80034B18460C37BD465DF8047B704783
:104620003400002080B582B000AF03463960FB71D2
:10463000FB79002B05D13A680749084802F01FFFB3
:1046400004E03A680449054802F019FF024B184695
:104650000837BD4680BD00BF945D0020C41001082E
:1046600080B582B000AF03463960FB713A680449F7
:10467000044802F004FF024B18460837BD4680BDCF
:10468000945D0020D410010880B582B000AF0346CD
:104690003960FB71FB79002B05D13A68074908485E
:1046A00002F0EDFE04E03A680449054802F0E7FE36
:1046B000024B18460837BD4680BD00BF945D002000
:1046C000DC10010880B582B000AF03463960FB7191
:1046D000FB79002B05D13A680749084802F0CFFE64
:1046E00004E03A680449054802F0C9FE024B184646
:1046F0000837BD4680BD00BF945D0020EC10010866
:1047000080B582B000AF03463960FB71FB79002BA6
:1047100005D13A680749084802F0B1FE04E03A685A
:104720000449054802F0ABFE024B18460837BD4667
:1047300080BD00BF945D0020FC10010898B500AF5B
:104740000A4A4FF000034FF0000482E81800084ABC
:104750004FF000034FF0000482E81800054B0122DF
:104760001A7006F095FC00BF98BD00BF080C002031
:10477000100C00203800002080B500AF4FF48041BD
:104780000748FCF7EEF900220649074801F08DFFC3
:104790000649054801F0A3FF0023184680BD00BF6D
:1047A000000C0240945F002080570020C40B0020C2
:1047B00080B500AFFFF7C2FF0023184680BD0000A0
:1047C00090B589B000AF03463960FB711346BB80DA
:1047D0003B687B610023FB770023BB61A04BD3F8D0
:1047E00018323B61FB79002B02D0012B6ED0F9E32C
:1047F0007B691B689B4A13607B699B68994A53607D
:104800007B691B68022B1AD1FFF798FF7B69DB6875
:10481000944A93607B691B69924AD3607B695B69A8
:10482000904A1361904B00221A703B690022C3F832
:10483000142208228D498A4801F08FFFD1E37B6959
:104840001B68032B09D13B690122C3F81422FFF72F
:1048500075FF854B01221A70C3E37B691B68042B2B
:1048600015D17B69DB687F4A53617B691B697D4A8F
:1048700093617B695B697B4AD3617B699B69794AF8
:10488000136208227949764801F067FFA9E37B6942
:104890001B68052B05D108227449714801F05DFFA2
:1048A0009FE37B691B68062B05D108226F496C4882
:1048B00001F053FF95E37B691B68082B40F091835F
:1048C00008226A49664801F048FF8AE3654B1B6885
:1048D000022B65D1BB695A1CBA619B007A691344EB
:1048E000634A1A60BB690133BB61BB695A1CBA6178
:1048F0009B007A6913445B4A52681A60BB695A1C70
:10490000BA619B007A69134400221A60BB695A1C81
:10491000BA619B007A69134401221A60BB695A1C70
:10492000BA619B007A69134400221A60BB695A1C61
:10493000BA619B007A69134401221A60BB695A1C50
:10494000BA619B007A69134400221A60BB695A1C41
:10495000BA619B007A69134401221A60BB695A1C30
:10496000BA619B007A69134440F22C621A60BB69F9
:104970005A1CBA619B007A69134403221A60BB690E
:104980005A1CBA619B007A69134400221A60BB6901
:104990005A1CBA619B007A69134400221A600EE324
:1049A000304B1B68042B40F08F820023FB60BB69F7
:1049B0005A1CBA619B007A6913442E4A1A60BB697B
:1049C0000133BB61BB695A1CBA619B007A6913440D
:1049D000244A52681A60BB695A1CBA619B007A6902
:1049E000134400221A601F4B5B69234A934200F074
:1049F0008E80214A93421FD8204A934200F00D82B4
:104A00001E4A93420BD81E4A934200F099801D4AD9
:104A1000934200F0AF801C4A934258D042E21B4AB6
:104A2000934200F04F811A4A934200F0BD80194A28
:104A3000934200F0138235E2174A934200F0A281BC
:104A4000154A93422ED8154A934200F08181134AA9
:104A5000934200F2C981124A934200F04D8121E253
:104A600080570020200C002038000020E4110108AD
:104A70000200008004000080020201000C0101001D
:104A800006010100070101000101010011010100FF
:104A9000140101000D0101000401020002010200E5
:104AA00001010200B3F1013F00F0E280B3F1013FE8
:104AB00004D89E4A934200F07E81F3E113F1FE3F59
:104AC00000F0A4809A4A934200F08780EAE16423D0
:104AD000FB60BB695A1CBA619B007A691344FA688F
:104AE0001A60BB695A1CBA619B007A691344102290
:104AF0001A60BB699B007A691344FA688D491846AD
:104B00000CF02DF9BA69FB681344BB6157E2BB692D
:104B10005A1CBA619B007A69134404221A60BB696B
:104B20005A1CBA619B007A69134410221A60BB694F
:104B30005A1CBA619B007A69134400221A603EE253
:104B4000BB695A1CBA619B007A69134404221A603B
:104B5000BB695A1CBA619B007A69134410221A601F
:104B6000BB695A1CBA619B007A69134440F2DC525B
:104B70001A6024E2BB695A1CBA619B007A6913442B
:104B800004221A60BB695A1CBA619B007A691344FB
:104B900010221A60BB695A1CBA619B007A691344DF
:104BA0004FF47A721A600AE2BB695A1CBA619B0020
:104BB0007A69134404221A60BB695A1CBA619B00CB
:104BC0007A69134410221A60BB695A1CBA619B00AF
:104BD0007A69134400221A60F1E1BB695A1CBA6178
:104BE0009B007A69134404221A60BB695A1CBA619B
:104BF0009B007A69134410221A60BB695A1CBA617F
:104C00009B007A69134401221A60D8E1BB695A1CDF
:104C1000BA619B007A69134406221A60BB695A1C68
:104C2000BA619B007A69134410221A60BB695A1C4E
:104C3000BA619B007A691A443F4B1B7819063F4BB7
:104C40000B431360BB695A1CBA619B007A69134419
:104C50003B4A127812023B4909780A431A607B6981
:104C60000433BA699200023A1A601B68FB77A6E126
:104C7000BB695A1CBA619B007A69134406221A6008
:104C8000BB695A1CBA619B007A69134410221A60EE
:104C9000BB695A1CBA619B007A6913442A4A1A609C
:104CA000BB695A1CBA619B007A6913444FF6EE72D5
:104CB0001A607B690433BA699200023A1A601B6871
:104CC000FB777CE1BB695A1CBA619B007A6913448B
:104CD00004221A60BB695A1CBA619B007A691344AA
:104CE00010221A60BB695A1CBA619B007A6913448E
:104CF00040F216621A6062E1BB695A1CBA619B00FD
:104D00007A69134404221A60BB695A1CBA619B0079
:104D10007A69134410221A60BB695A1CBA619B005D
:104D20007A691A44094B18CB136048E10501020067
:104D30000401010180110108107AFF1F40787500FD
:104D4000127AFF1F117AFF1F407875DD080C0020D2
:104D5000BB695A1CBA619B007A69134404221A6029
:104D6000BB695A1CBA619B007A69134410221A600D
:104D7000BB695A1CBA619B007A691A449C4B18CBD8
:104D800013601CE1BB695A1CBA619B007A69134429
:104D900004221A60BB695A1CBA619B007A691344E9
:104DA00010221A60BB695A1CBA619B007A691344CD
:104DB00000221A6003E1BB695A1CBA619B007A6940
:104DC000134404221A60BB695A1CBA619B007A69B9
:104DD000134410221A60BB695A1CBA619B007A699D
:104DE000134400221A60EAE0BB695A1CBA619B00B6
:104DF0007A69134404221A60BB695A1CBA619B0089
:104E00007A69134410221A60BB695A1CBA619B006C
:104E10007A69134400221A60D1E0BB695A1CBA6156
:104E20009B007A69134403221A60BB695A1CBA6159
:104E30009B007A69134414221A60BB695A1CBA6138
:104E40009B007A6913446B4A1A607B690433BA6920
:104E50009200013A1A601B68FB77B0E0BB695A1CEC
:104E6000BA619B007A6913440F221A60BB695A1C0D
:104E7000BA619B007A69134410221A60BB695A1CFC
:104E8000BA619B007A6913440F225B4918460BF004
:104E900066FF7B690433BA6992000F321A601B689F
:104EA000FB778CE0BB695A1CBA619B007A6913449A
:104EB00000221A60BB695A1CBA619B007A691344CC
:104EC00014221A6000BF7AE04C4B1B68052B2ED1D0
:104ED000BB695A1CBA619B007A691344484A1A603C
:104EE000BB690133BB61BB695A1CBA619B007A691B
:104EF0001344424A52681A60BB695A1CBA619B004B
:104F00007A69134400221A603C4B5B693D4A934224
:104F10004ED03C4A934203D83B4A93424AD04EE09B
:104F20003A4A934248D0B3F1013F47D047E0334B70
:104F30001B68062B1BD1BB695A1CBA619B007A699E
:104F40001344334A1A60BB690133BB61BB695A1C05
:104F5000BA619B007A69134400221A60BB695A1C2B
:104F6000BA619B007A69134400221A6027E0234B40
:104F70001B68082B23D1BB695A1CBA619B007A6954
:104F80001344244A1A60BB690133BB61BB695A1CD4
:104F9000BA619B007A691344184A52681A60BB6967
:104FA0005A1CBA619B007A69134400221A6006E019
:104FB00000BF04E000BF02E000BF00E000BFFB7FD5
:104FC000002B06D17B690433BA6992001A601B6812
:104FD000FB77FB7F9BB21A4639680F4802F0AAFAAA
:104FE00000E000BF002318462437BD4690BD00BF37
:104FF000100C00204078750004120108200C0020DD
:1050000005000080110101000E01010014010100E2
:1050100006000080080000808057002090B585B011
:1050200000AF786039603B681B68402B02D93B6851
:1050300040221A60254B1B881A46254BD0183B6826
:105040001B681A4623490BF08AFE3B681B689AB21C
:105050001E4B1B8813449AB21C4B1A803B681B687A
:10506000402B26D01C4B1B68002B22D0174B1A88D4
:105070001A4B1A80154B00221A80174B1B6807F138
:105080000C021146184604F079FDFB68002B07D08E
:10509000134B4FF080521A60BFF34F8FBFF36F8FE7
:1050A000104B18CB013344F100040E4A82E818007B
:1050B00006E008490C4801F012FB0B4801F023FB05
:1050C000002318461437BD4690BD00BF440C002095
:1050D000C4030020C40B00201C0C0020180C00206E
:1050E00004ED00E0100C00208057002080B584B053
:1050F00002AF00237B600D4B1B78002B10D10123E6
:105100007B600B4B1B68002B0AD1094B01930623D4
:10511000009300234FF480720649074803F0C4FD52
:105120007B6818460837BD4680BD00BF38000020A8
:105130001C0C0020101101086151000880B584B0DA
:1051400000AF786039600023FB733B68002B02D00E
:1051500078680BF0EFFA012318461037BD4680BD82
:1051600080B586B000AF78604FF0FF31002004F0CA
:10517000BDFC054B1B887B610449054801F0AFFA73
:10518000034801F0C0FAEFE7180C0020C40B002020
:105190008057002080B584B000AF78600B46FB706C
:1051A0000023FB730023BB730023BB7345E0BA7B72
:1051B000274913469B0013441B010B4408331A680C
:1051C0007B68C3F81822BA7B214913469B0013441D
:1051D0001B010B440C331A687B68C3F81C22BA7B92
:1051E0001B4913469B0013441B010B4404331B68EB
:1051F0001B68FA7811467868984703461A46FB7B85
:105200001343FB73BA7B7B68D3F81812104813461C
:105210009B0013441B01034408331960BA7B7B686D
:10522000D3F81C120A4813469B0013441B01034485
:105230000C331960BB7B0133BB73064B1B78BA7B05
:105240009A42B4D3FB7B18461037BD4680BD00BFE1
:10525000C0670020460C002080B584B000AF7860A5
:105260000B46FB700023FB730023BB730023BB734F
:1052700045E0BA7B274913469B0013441B010B44AE
:1052800008331A687B68C3F81822BA7B2149134691
:105290009B0013441B010B440C331A687B68C3F852
:1052A0001C22BA7B1B4913469B0013441B010B4471
:1052B00004331B685B68FA781146786898470346A0
:1052C0001A46FB7B1343FB73BA7B7B68D3F8181237
:1052D000104813469B0013441B0103440833196014
:1052E000BA7B7B68D3F81C120A4813469B00134410
:1052F0001B0103440C331960BB7B0133BB73064BAA
:105300001B78BA7B9A42B4D3FB7B18461037BD4654
:1053100080BD00BFC0670020460C002080B584B06F
:1053200000AF786039600023FB730023BB73FF2359
:105330007B7300233B733B681B7803F01F03012B37
:1053400002D0022B20D08AE000237B7314E07A7B0A
:105350006D4913469B0013441B010B4403331A7819
:10536000BB7B1344BB733B689B88DBB2BA7B9A421E
:1053700008D87B7B01337B73644B1B787A7B9A4222
:10538000E5D36CE000BF6AE000237B735FE03B681D
:105390009B8803F08003002B24D000233B7314E090
:1053A0007A7B397B584813469B0013441B01034406
:1053B0000B4430331B781A463B689B8803F07F030D
:1053C0009A4232D03B7B01333B737A7B4E49134682
:1053D0009B0013441B010B4410331B783A7B9A4209
:1053E000DED325E000233B7312E07A7B397B46480D
:1053F00013469B0013441B0103440B443F331A78AC
:105400003B689B88DBB29A4211D03B7B01333B73F4
:105410007A7B3D4913469B0013441B010B44113317
:105420001B783A7B9A42E0D302E000BF00E000BF65
:105430007A7B354913469B0013441B010B44103300
:105440001B783A7B9A4208D17B7B01337B732F4BCD
:105450001B787A7B9A429AD300E000BF00BF2B4BA7
:105460001B787A7B9A424AD07A7B274913469B0065
:1054700013441B010B4408331A687B68C3F81822D5
:105480007A7B214913469B0013441B010B440C33C8
:105490001A687B68C3F81C227A7B1B4913469B0061
:1054A00013441B010B4404331B689B68002B0ED074
:1054B0007A7B154913469B0013441B010B440433AC
:1054C0001B689B683968786898470346FB737A7B4A
:1054D0007B68D3F818120C4813469B0013441B0139
:1054E0000344083319607A7B7B68D3F81C120648A2
:1054F00013469B0013441B0103440C331960FB7BD0
:1055000018461037BD4680BDC0670020460C0020FD
:1055100090B585B000AF78600B46FB700023FB733D
:105520000023BB7300237B730023BB737DE0002348
:105530007B736BE0BA7B797B414813469B00134435
:105540001B0103440B4430331B78FA789A425AD13A
:10555000BA7B3B4913469B0013441B010B440833A1
:105560001A687B68C3F81822BA7B354913469B003A
:1055700013441B010B440C331A687B68C3F81C22CC
:10558000BA7B2F4913469B0013441B010B44043381
:105590001B689B69002B1CD0BA7B294913469B00D2
:1055A00013441B010B4404331B685C69BA7B797B91
:1055B000234813469B0013441B0103440B4412333E
:1055C0001B7819467868A04703461A46FB7B1343AD
:1055D000FB73BA7B7B68D3F81812194813469B00FB
:1055E00013441B01034408331960BA7B7B68D3F86A
:1055F0001C12134813469B0013441B0103440C3335
:105600001960FB7B18E07B7B01337B73BA7B0C4911
:1056100013469B0013441B010B4410331B787A7B09
:105620009A4287D3BB7B0133BB73064B1B78BA7B93
:105630009A42FFF47CAFFB7B18461437BD4690BD01
:10564000C0670020460C002090B585B000AF7860A0
:105650000B46FB700023FB730023BB730023BB735B
:105660007FE000237B7300237B736BE0BA7B797B45
:10567000414813469B0013441B0103440B443F3332
:105680001B78FA789A425AD1BA7B3B4913469B0061
:1056900013441B010B4408331A687B68C3F81822B3
:1056A000BA7B354913469B0013441B010B440C3352
:1056B0001A687B68C3F81C22BA7B2F4913469B00EB
:1056C00013441B010B4404331B689B69002B1CD043
:1056D000BA7B294913469B0013441B010B44043336
:1056E0001B689C69BA7B797B234813469B00134453
:1056F0001B0103440B4421331B7819467868A047EB
:1057000003461A46FB7B1343FB73BA7B7B68D3F8D3
:105710001812194813469B0013441B010344083315
:105720001960BA7B7B68D3F81C12134813469B00A0
:1057300013441B0103440C331960FB7B18E07B7B93
:1057400001337B73BA7B0C4913469B0013441B0146
:105750000B4411331B787A7B9A4287D3BB7B01338E
:10576000BB73064B1B78BA7B9A42FFF47AAFFB7B84
:1057700018461437BD4690BDC0670020460C002077
:1057800080B584B000AF78600023FB730023BB7347
:105790004FE0BA7B2C4913469B0013441B010B447A
:1057A00008331A687B68C3F81822BA7B2649134667
:1057B0009B0013441B010B440C331A687B68C3F82D
:1057C0001C22BA7B204913469B0013441B010B4447
:1057D00004331B681B69002B10D0BA7B1A4913468F
:1057E0009B0013441B010B4404331B681B6978683E
:1057F000984703461A46FB7B1343FB73BA7B7B68CF
:10580000D3F81812104813469B0013441B0103449D
:1058100008331960BA7B7B68D3F81C120A48134618
:105820009B0013441B0103440C331960BB7B013301
:10583000BB73064B1B78BA7B9A42AAD3FB7B1846F4
:105840001037BD4680BD00BFC0670020460C002059
:1058500080B584B000AF78600023FB730023BB7376
:105860004FE0BA7B2C4913469B0013441B010B44A9
:1058700008331A687B68C3F81822BA7B2649134696
:105880009B0013441B010B440C331A687B68C3F85C
:105890001C22BA7B204913469B0013441B010B4476
:1058A00004331B68DB68002B10D0BA7B1A491346FF
:1058B0009B0013441B010B4404331B68DB687868AE
:1058C000984703461A46FB7B1343FB73BA7B7B68FE
:1058D000D3F81812104813469B0013441B010344CD
:1058E00008331960BA7B7B68D3F81C120A48134648
:1058F0009B0013441B0103440C331960BB7B013331
:10590000BB73064B1B78BA7B9A42AAD3FB7B184623
:105910001037BD4680BD00BFC0670020460C002088
:1059200080B584B000AF78600023FB730023BB73A5
:105930004FE0BA7B2C4913469B0013441B010B44D8
:1059400008331A687B68C3F81822BA7B26491346C5
:105950009B0013441B010B440C331A687B68C3F88B
:105960001C22BA7B204913469B0013441B010B44A5
:1059700004331B68DB69002B10D0BA7B1A4913462D
:105980009B0013441B010B4404331B68DB697868DC
:10599000984703461A46FB7B1343FB73BA7B7B682D
:1059A000D3F81812104813469B0013441B010344FC
:1059B00008331960BA7B7B68D3F81C120A48134677
:1059C0009B0013441B0103440C331960BB7B013360
:1059D000BB73064B1B78BA7B9A42AAD3FB7B184653
:1059E0001037BD4680BD00BFC0670020460C0020B8
:1059F00090B585B000AF78600B46FB700023FB7359
:105A00000023BB730023BB737FE000237B73002361
:105A10007B736BE0BA7B797B414813469B00134450
:105A20001B0103440B4430331B78FA789A425AD155
:105A3000BA7B3B4913469B0013441B010B440833BC
:105A40001A687B68C3F81822BA7B354913469B0055
:105A500013441B010B440C331A687B68C3F81C22E7
:105A6000BA7B2F4913469B0013441B010B4404339C
:105A70001B681B6A002B1CD0BA7B294913469B006C
:105A800013441B010B4404331B681C6ABA7B797BEB
:105A9000234813469B0013441B0103440B44123359
:105AA0001B7819467868A04703461A46FB7B1343C8
:105AB000FB73BA7B7B68D3F81812194813469B0016
:105AC00013441B01034408331960BA7B7B68D3F885
:105AD0001C12134813469B0013441B0103440C3350
